:020000040800F2
:10000000000001209D1800089103000895030008D6
:10001000990300089D030008A103000800000000E8
:10002000000000000000000000000000D10E0008E9
:10003000A503000800000000710F0008A9030008D4
:10004000E5180008E5180008E5180008E51800089C
:10005000E5180008E5180008E5180008E51800088C
:10006000E5180008E5180008E5180008E51800087C
:10007000E5180008E5180008E5180008E51800086C
:10008000E5180008E5180008E5180008E51800085C
:10009000E5180008E5180008E5180008E51800084C
:1000A000E5180008E5180008E5180008E51800083C
:1000B000E5180008E5180008E5180008E51800082C
:1000C000E5180008E5180008E5180008E51800081C
:1000D000E5180008E5180008E5180008E51800080C
:1000E000E5180008E5180008E5180008E5180008FC
:1000F000E5180008E5180008E5180008E5180008EC
:10010000E5180008E5180008E5180008E5180008DB
:10011000E5180008E5180008E5180008E5180008CB
:10012000E5180008E5180008E5180008E5180008BB
:1001300000000000000000000000000000000000BF
:1001400000000000000000000000000000000000AF
:10015000000000000000000000000000000000009F
:10016000000000000000000000000000000000008F
:10017000000000000000000000000000000000007F
:10018000000000000000000000000000000000006F
:10019000000000000000000000000000000000005F
:1001A000000000000000000000000000000000004F
:1001B000000000000000000000000000000000003F
:1001C000000000000000000000000000000000002F
:1001D000000000000000000000000000000000001F
:0401E0005FF8E0F1F3
:1001F000044B05481B1A062B02D9044B03B11847C0
:10020000704700BF13000020100000200000000015
:1002100005490648091A891001EBD171491002D02D
:10022000034B03B118477047100000201000002056
:100230000000000010B5064C237843B9FFF7D8FF43
:10024000044B13B10448AFF300800123237010BDA9
:1002500010000020000000003419000808B5084B09
:100260001BB108480849AFF300800848036813B978
:10027000BDE80840CCE7064B002BF9D09847F7E7DC
:1002800000000000341900081400002010000020B5
:100290000000000082B00A4B9A6942F004029A61A1
:1002A0009A6902F004020092009A9A6942F00802E8
:1002B0009A619B6903F008030193019B02B07047A8
:1002C0000010024008B5012001F0D8FAFBE700BF9A
:1002D000FEE700BF00B591B0012206924FF48033D3
:1002E0000793002108910A9202220D920E934FF477
:1002F000E0130F9306A800F00DF918B11448B321CC
:10030000FFF7E6FF0F2301930221029100230393DD
:100310004FF480620492059301A800F033FB18B1FA
:100320000B48C121FFF7D4FF00F0EEFB094BA3FB04
:100330000030800900F032FC042000F045FC4FF052
:10034000FF300F21002200F0F7FB11B05DF804FB35
:1003500074190008D34D621030B587B000F0A0F8D2
:10036000FFF7B8FFFFF796FF01AC074D0FCD0FC4A5
:100370002B68236001A8002101F066FA034B186086
:1003800001F05CFAFEE700BF4C190008780D002070
:10039000704700BFFEE700BFFEE700BFFEE700BFFB
:1003A000FEE700BF704700BF08B500F08BF801F012
:1003B0006DFA08BD00B583B0244B9A6942F0010282
:1003C0009A619A6902F001020092009ADA6942F099
:1003D0008052DA61DB6903F080530193019B0320B3
:1003E00000F098FB6FF00B0000210A4600F0A4FB20
:1003F0006FF00A0000210A4600F09EFB6FF0090032
:1004000000210A4600F098FB6FF0040000210A4624
:1004100000F092FB6FF0030000210A4600F08CFB15
:100420006FF001000F21002200F086FB4FF0FF303B
:100430000F21002200F080FB054A536823F0E0639F
:1004400043F00073536003B05DF804FB00100240FA
:100450000000014010B504460E4B18784FF47A7333
:10046000B3FBF0F30C4A1068B0FBF3F000F096FB1E
:1004700058B90F2C0BD84FF0FF302146002200F066
:100480005BFB064B1C60002010BD012010BD01204D
:1004900010BD00BF04000020080000200000002064
:1004A00008B5074A136843F010031360032000F0F7
:1004B00031FB0F20FFF7CEFFFFF77CFF002008BDC8
:1004C00000200240034A1368034909780B44136073
:1004D000704700BF7C0D002004000020014B18680D
:1004E000704700BF7C0D002082B0084B1B68084A93
:1004F000A2FB03235B0A00FB03F0019000BF019BFA
:100500005A1E0192002BF9D102B07047080000205A
:10051000D34D621070B582B00446036813F0010F2A
:100520006BD0A84B5B6803F00C03042B0AD0A54BDF
:100530005B6803F00C03082B0DD1A24B5B6813F42E
:10054000803F08D09F4B1B6813F4003F55D0636871
:10055000002B52D1B8E16368B3F5803F05D1994AC9
:10056000136843F48033136026E063B903F18043DA
:1005700003F504331A6822F480321A601A6822F4F0
:1005800080221A6018E0B3F5A02F0CD103F180434C
:10059000A3F53C331A6842F480221A601A6842F4C8
:1005A00080321A6008E0874B1A6822F480321A60A1
:1005B0001A6822F480221A6063687BB1FFF78EFF0D
:1005C000054605E0FFF78AFF401B642800F27E81A4
:1005D0007C4B1B6813F4003FF4D00EE0FFF77EFF66
:1005E000054605E0FFF77AFF401B642800F27081A2
:1005F000744B1B6813F4003FF4D1236813F0020F0F
:1006000050D0704B5B6813F00C0F0AD06D4B5B68D9
:1006100003F00C03082B16D16A4B5B6813F4803F80
:1006200011D1684B1B6813F0020F03D02369012B13
:1006300040F05081634A136823F0F803616943EA8C
:10064000C10313602EE02369D3B101225E4B1A600F
:10065000FFF744FF054605E0FFF740FF401B022877
:1006600000F23A81574B1B6813F0020FF4D0554A41
:10067000136823F0F803616943EAC103136011E0D2
:100680000022514B1A60FFF729FF054605E0FFF7EE
:1006900025FF401B022800F221814A4B1B6813F002
:1006A000020FF4D1236813F0080F29D0A369ABB16E
:1006B0000122464B1A60FFF711FF054605E0FFF7E0
:1006C0000DFF401B022800F20B813E4B5B6A13F0CA
:1006D000020FF4D00120FFF707FF11E000223B4B8F
:1006E0001A60FFF7FBFE054605E0FFF7F7FE401B2B
:1006F000022800F2F780334B5B6A13F0020FF4D14B
:10070000236813F0040F00F089802E4BDB6913F08F
:10071000805F0BD12B4BDA6942F08052DA61DB69E2
:1007200003F080530193019B012500E00025284B35
:100730001B6813F4807F13D1254A136843F4807338
:100740001360FFF7CBFE064605E0FFF7C7FE801BF0
:10075000642800F2C9801E4B1B6813F4807FF4D01C
:10076000E368012B05D1174A136A43F001031362B2
:1007700022E063B903F1804303F504331A6A22F0DF
:1007800001021A621A6A22F004021A6214E0052BAE
:1007900009D10C4B1A6A42F004021A621A6A42F03A
:1007A00001021A6208E0074B1A6A22F001021A627B
:1007B0001A6A22F004021A62E368CBB1FFF78EFED8
:1007C00006460FE000100240000042428004424210
:1007D00000700040FFF782FE801B41F28833984290
:1007E00000F28480494B1B6A13F0020FF2D00FE035
:1007F000FFF774FE064606E0FFF770FE801B41F22D
:100800008833984274D8414B1B6A13F0020FF3D11E
:1008100025B13E4AD36923F08053D361E369002BAD
:1008200068D03A4A526802F00C02082A64D0022BBF
:1008300037D10022364B1A60FFF750FE054604E020
:10084000FFF74CFE401B022858D8304B1B6813F0B2
:10085000007FF5D1236AB3F5803F06D12B494B6861
:1008600023F40032A36813434B602848436823F401
:100870007411236A626A13430B4343600122244BC1
:100880001A60FFF72BFE044604E0FFF727FE001B6B
:10089000022835D81D4B1B6813F0007FF5D00020CF
:1008A00031E000221A4B1A60FFF718FE044604E0FC
:1008B000FFF714FE001B022824D8144B1B6813F00A
:1008C000007FF5D100201EE001201CE003201AE08B
:1008D000032018E0012016E0032014E0032012E0BA
:1008E000032010E003200EE003200CE003200AE0C8
:1008F000032008E0002006E0012004E0032002E0DD
:10090000032000E0032002B070BD00BF00100240D1
:100910006000424230B486B0164D02AC2868696867
:10092000AA68EB680FC42B8AADF80430124B5B68E1
:1009300003F00C02082A19D1C3F3834206A90A4422
:1009400012F8100C13F4803F0CD00B4B5B68C3F310
:1009500040430B4413F8142C084B03FB00F0B0FB8E
:10096000F2F004E0064B03FB00F000E0034806B0A1
:1009700030BC7047601900080010024000127A0075
:1009800000093D0070B55C4B1B6803F007038B4208
:100990000BD2594A136823F007030B431360136803
:1009A00003F007038B4240F09780036813F0020FB7
:1009B00006D0524C636823F0F002836813436360EF
:1009C0000D460446036813F0010F4DD04268012A1A
:1009D00005D14A4B1B6813F4003F0DD17EE0022A7B
:1009E00005D1464B1B6813F0007F05D178E0434BDF
:1009F0001B6813F0020F75D040494B6823F00303C6
:100A000013434B60FFF76AFD06466368012B0ED166
:100A100006E0FFF763FD801B41F28833984263D8FC
:100A2000364B5B6803F00C03042BF2D11CE0022B65
:100A300015D106E0FFF752FD801B41F28833984242
:100A400054D82E4B5B6803F00C03082BF2D10BE05B
:100A5000FFF744FD801B41F28833984248D8274B6A
:100A60005B6813F00C0FF3D1234B1B6803F00703F3
:100A7000AB420AD9204A136823F007032B431360C3
:100A8000136803F00703AB4234D1236813F0040F5B
:100A900006D01A494B6823F4E062E36813434B60C5
:100AA000236813F0080F07D0144A536823F46053E7
:100AB000216943EAC1035360FFF72CFF0F4B5B68CA
:100AC000C3F303130E4AD35CD8400E4B18600F20BB
:100AD000FFF7C0FC002070BD012070BD012070BD7B
:100AE000012070BD012070BD032070BD032070BDCA
:100AF000032070BD012070BD0020024000100240A4
:100B00008C19000808000020014B1868704700BFCE
:100B10000800002000F00700064AD36823F4E063D1
:100B20001B041B0C43EA002040F0BF6040F400307F
:100B3000D060704700ED00E030B4164BDC68C4F3C1
:100B40000224C4F10705042D28BF0425231D062B0C
:100B500001D9033C00E00024012303FA05F5013D1F
:100B60002940A140A340013B1A400A43002806DA6D
:100B700000F00F001201D2B2074B1A5407E0120125
:100B8000D2B200F1604000F5614080F8002330BC33
:100B9000704700BF00ED00E014ED00E00138B0F157
:100BA000807F0AD2064B5860F021064A82F8231053
:100BB0000020986007221A6070470120704700BF2C
:100BC00010E000E000ED00E0042805D1054A1368BC
:100BD00043F0040313607047024A136823F00403D0
:100BE0001360704710E000E00F4B1A6842F00102FA
:100BF0001A6059680D4A0A405A601A6822F08472D5
:100C000022F480321A601A6822F480221A605A682C
:100C100022F4FE025A604FF41F029A604FF0006205
:100C2000034B9A60704700BF001002400000FFF8BD
:100C300000ED00E0124A12F0070F07D0D11D21F09D
:100C40000701C1F5406313440A4601E04FF44063D5
:100C50000C480260002141601344083B23F0070365
:100C60000948036059601960991A51601360074B75
:100C70001960074B19604FF00042064B1A6070472D
:100C80003C0000203400002030000020400C0020F8
:100C90002C0000203C0C0020134A00E01A46136888
:100CA0008342FBD310B451685418844203D1406886
:100CB000014451601046416844189C420CD10B4CD1
:100CC0002468A34206D05B681944416013681B681E
:100CD000036002E0046000E00360824200D0106024
:100CE0005DF8044B704700BF340000203000002046
:100CF00070B5044600F0C4FB334B1B680BB9FFF71B
:100D000099FF324B1B681C4247D134B1083414F0B0
:100D1000070F02D024F007040834002C3FD02C4BDE
:100D20001B689C423DD82B4B1D6801E02B461546A5
:100D30006A68A24202D22A68002AF7D1224A1268BF
:100D4000954230D01E6808362A681A606B681B1BF3
:100D5000102B10D9281910F0070F08D04FF05003AE
:100D600083F31188BFF36F8FBFF34F8FFEE74360AC
:100D70006C60FFF791FF6A6815490B689B1A0B605E
:100D8000154909688B4201D213490B600F4B1B6850
:100D900013436B6000232B6006E0002604E000266E
:100DA00002E0002600E0002600F004FC16F0070F29
:100DB00008D04FF0500383F31188BFF36F8FBFF358
:100DC0004F8FFEE7304670BD300000203C0C002005
:100DD0002C00002034000020400C0020A0B338B5C7
:100DE0000346A0F1080550F8042C1849096812EAD6
:100DF000010408D14FF0500383F31188BFF36F8FC4
:100E0000BFF34F8FFEE750F8080C40B14FF050038E
:100E100083F31188BFF36F8FBFF34F8FFEE794B159
:100E200088B91C4622EA010243F8042C00F028FB92
:100E300054F8041C064A13680B4413602846FFF755
:100E40002BFF00F0B7FB38BD704700BF3C0C002003
:100E50002C0000200B4B1B68B3F1FF3F08D04FF074
:100E6000500383F31188BFF36F8FBFF34F8FFEE7FB
:100E70004FF0500383F31188BFF36F8FBFF34F8F91
:100E8000FEE700BF0C00002006480068006880F301
:100E9000088862B661B6BFF34F8FBFF36F8F00DF74
:100EA00000BF000008ED00E04FF0807340F8043C04
:100EB00021F0010140F8081C034B40F80C3C40F8BD
:100EC000202C4038704700BF550E0008000000007D
:100ED000074B19680868B0E8F00F80F30988BFF382
:100EE0006F8F4FF0000080F311884EF00D0E7047A9
:100EF0000C0D00204FF0500383F31188BFF36F8F68
:100F0000BFF34F8F0A4A136801331360012B0DD1D1
:100F1000084B1B6813F0FF0F08D04FF0500383F30A
:100F20001188BFF36F8FBFF34F8FFEE7704700BF8D
:100F30000C00002004ED00E0094B1B6843B94FF0A2
:100F4000500383F31188BFF36F8FBFF34F8FFEE71A
:100F5000013B034A13600BB983F31188704700BF4C
:100F60000C00002000000000000000000000000055
:100F7000EFF30980BFF36F8F0D4B1A6820E9F00F74
:100F800010602DE908404FF0500080F3118800F008
:100F9000F3FB4FF0000080F31188BDE808401968AA
:100FA0000868B0E8F00F80F30988BFF36F8F7047CF
:100FB0000C0D002008B54FF0500383F31188BFF3E8
:100FC0006F8FBFF34F8F00F063FA18B14FF080526C
:100FD000024B1A60002383F3118808BD04ED00E082
:100FE000064B1B68064AA2FB03239B09013B054AEB
:100FF00013600722044B1A60704700BF08000020EE
:10100000D34D621014E000E010E000E000B583B0C2
:101010001F4B1A78D2B20192FF221A701B78DBB2F2
:101020008DF803309DF8033003F05003194A137014
:101030000722194B1A6009E0174A1368013B136035
:101040009DF803305B00DBB28DF803309DF8033070
:1010500013F0800FF0D1104A13681B0203F4E06311
:101060001360019BDBB20A4A13700C4B1A6842F4FE
:1010700070021A601A6842F070421A60FFF7B0FFFF
:101080000022074B1A60FFF7FFFEFFF7E3FE00BFE9
:1010900000E400E0440C0020480C002020ED00E0BB
:1010A0000C00002000F1080343604FF0FF32826023
:1010B000C360036100230360704700BF0023036126
:1010C000704700BF43684B609A688A609A685160B5
:1010D00099600861036801330360704730B40D689C
:1010E000B5F1FF3F01D1026907E000F1080200E01D
:1010F0001A4653681C68AC42FAD953684B60996031
:101100008A605160086103680133036030BC704736
:1011100003694268816891608268416851605A68D9
:10112000824201D182685A60002202611868013847
:10113000186070470A4B1B681B680BB9012300E05D
:10114000002323B14FF0FF32064B1A607047044B67
:101150001B68DB68DB685A68024B1A60704700BF87
:10116000500C00202C0D002010B50446006BFFF73A
:1011700035FE2046FFF732FE10BD00BF2DE9F047D7
:1011800081469846089D099F0A9C236B02F1804284
:10119000013A03EB820626F00706002306E0C85C4E
:1011A000E21882F83400CA5C12B101330F2BF6D971
:1011B000002384F84330062D00D90625E5626564D6
:1011C0004FF0000AC4F848A0201DFFF777FF04F194
:1011D0001800FFF773FF2461C5F10705A56164627C
:1011E000C4F84CA084F850A0304649464246FFF768
:1011F0005BFE206007B13C60BDE8F08738B5002495
:1012000007E004EB84039B000E481844FFF74AFFF5
:101210000134062CF5D90C4D2846FFF743FF0B4C43
:101220002046FFF73FFF0A48FFF73CFF0948FFF75A
:1012300039FF0948FFF736FF084B1D60084B1C605B
:1012400038BD00BF740C0020340D0020480D002074
:10125000100D0020580C00205C0D0020500C0020C8
:101260006C0C002010B50446FFF744FE204A1368BA
:10127000013313601F4B1B683BB91E4B1C60136886
:10128000012B0DD1FFF7BAFF0AE01B4B1B683BB9DE
:10129000184B1B68DA6AE36A9A4201D8154B1C6046
:1012A000164A136801331360E06A0123834014492E
:1012B0000A6813430B6000EB80008000114B184458
:1012C000211DFFF7FFFEFFF737FE0B4B1B686BB1CD
:1012D000084B1B68DA6AE36A9A4207D24FF08052E1
:1012E000094B1A60BFF34F8FBFF36F8F10BD00BF64
:1012F000080D00200C0D0020540C0020300D0020A3
:10130000700D0020740C002004ED00E070B5044660
:101310000E461C4B1D681C4B18680430FFF7F8FE86
:1013200048B9194B1B68DA6A0123934017490A68C8
:1013300022EA03030B60B4F1FF3F07D136B1124B31
:10134000196813480431FFF7BDFE70BD2C440E4BE5
:101350001B685C60AC4207D20E4B18680A4B1968D8
:101360000431FFF7BBFE70BD0B4B1868064B1968C4
:101370000431FFF7B3FE094B1B689C4201D2074BB7
:101380001C6070BD280D00200C0D0020700D002089
:101390005C0D00206C0C0020500C00202C0D002057
:1013A0002DE9F04385B080460F4615461E46900055
:1013B000FFF79EFC60B181465420FFF799FC04467C
:1013C00010B1C0F8309004E04846FFF707FD00E098
:1013D00000248CB10C9B00930D9B0193029400237D
:1013E0000393404639462A463346FFF7C7FE204658
:1013F000FFF738FF012001E04FF0FF3005B0BDE8F6
:10140000F08300BF00B583B000230093164A019219
:10141000164817498022FFF7C3FF012814D14FF067
:10142000500383F31188BFF36F8FBFF34F8F4FF0DB
:10143000FF32104B1A6001220F4B1A6000220F4B33
:101440001A60FFF7E3FD0BE0B0F1FF3F08D14FF06A
:10145000500383F31188BFF36F8FBFF34F8FFEE705
:1014600003B05DF804FB00BF240D002051170008F5
:101470009C1900082C0D0020540C0020280D002081
:10148000024A136801331360704700BF000D00204B
:10149000F8B53D4B1B68002B69D13C4B1D680135ED
:1014A0001D60C5B93A4B1B681B6843B14FF0500330
:1014B00083F31188BFF36F8FBFF34F8FFEE7344A7A
:1014C0001168344B186810601960334A136801338F
:1014D0001360FFF72FFE314B1B689D4203D200249F
:1014E0003AE0012400E00024294B1B681B680BB97B
:1014F000012300E0002323B14FF0FF32274B1A6095
:101500002AE0234B1B68DB68DE6873689D4202D2C9
:10151000224A136020E0371D3846FFF7F9FDB36A11
:101520001BB106F11800FFF7F3FDF36A012202FA7E
:1015300003F11B4802680A43026003EB83039B002C
:10154000184818443946FFF7BDFDF26A164B1B6870
:10155000DB6A9A42C5D2C7E7134B1B68DB6A03EB11
:1015600083039B000F4AD358012B06D806E00F4A8D
:10157000136801331360002400E001240C4B1B6846
:1015800003B101242046F8BD000D0020280D0020E5
:10159000500C00206C0C00204C0C00202C0D002066
:1015A000700D0020740C00200C0D0020700C002029
:1015B000740D002038B5344B1B6843B94FF050030D
:1015C00083F31188BFF36F8FBFF34F8FFEE7FFF7F1
:1015D00091FC2D4B1A68013A1A601B68002B4CD104
:1015E0002A4B1B6833BB00244AE0294BDB68DC68CC
:1015F00004F11800FFF78CFD251D2846FFF788FD34
:10160000E36A012202FA03F1224802680A430260F7
:1016100003EB83039B00204818442946FFF752FD43
:10162000E26A1E4B1B68DB6A9A4204D301221C4B00
:101630001A6000E00024164B1B68002BD5D10CB1BA
:10164000FFF778FD174B1C6854B1FFF721FF10B16D
:101650000122134B1A60013CF7D10022114B1A6092
:101660000F4B1B685BB14FF080520F4B1A60BFF3FA
:101670004F8FBFF36F8F012402E0002400E00024AD
:10168000FFF75AFC204638BD000D0020080D002051
:10169000100D0020700D0020740C00200C0D002097
:1016A000740D0020700C002004ED00E010B5A8B10E
:1016B0000446104B1B6843B14FF0500383F311886D
:1016C000BFF36F8FBFF34F8FFEE7FFF7D9FE2046C2
:1016D0000021FFF71BFEFFF76DFF00E0002038B987
:1016E0004FF08052044B1A60BFF34F8FBFF36F8FE0
:1016F00010BD00BF000D002004ED00E010B51BE0A0
:10170000FFF7BEFE0F4B1C68FFF754FFA4B1FFF7B5
:10171000F1FB0C4BDB68DC68201DFFF7F9FC0A4A83
:101720001368013B1360094A1368013B1360FFF71C
:1017300003FC2046FFF718FD044B1B68002BDFD18C
:1017400010BD00BF580C0020080D0020040D002023
:1017500008B5FFF7D3FF064B1B68012BF9D94FF0F3
:101760008052044B1A60BFF34F8FBFF36F8FF0E7C7
:10177000740C002004ED00E0204B1B681BB101221B
:101780001F4B1A60704700221D4B1A601D4B1B68CF
:10179000B3FA83F3DBB2C3F11F0303EB83029200BE
:1017A00019498A5842B94FF0500383F31188BFF3A7
:1017B0006F8FBFF34F8FFEE710B4134C9A00D11810
:1017C000890021444868406848601A449200083201
:1017D0002244904205D1416803EB830292002244E7
:1017E000516003EB83039B00074A13445B68DA688C
:1017F000064B1A605DF8044B704700BF000D0020D7
:10180000740D0020700D0020740C00200C0D0020C1
:10181000054B1B6823B1054B1B681BB902207047A1
:101820000120704700207047540C0020000D00205C
:10183000842801D0033070470020704708B5FFF7B7
:10184000E1FD002008BD00BFF0B585B00C4647683B
:1018500006680569B0F90800FFF7EAFF009003ABDE
:10186000019338463146AAB22346FFF799FD012875
:1018700001D1039800E0002005B0F0BD08B508B91B
:101880000120FFE7FFF712FF002008BD08B5FFF7B2
:10189000BFFF012801D0FFF78DFB08BD002103E049
:1018A0000B4B5B58435004310A480B4B42189A4289
:1018B000F6D30A4A02E0002342F8043B084B9A425E
:1018C000F9D3FFF791F900F00FF8FEF745FD7047E7
:1018D000AC190008000000201000002010000020BB
:1018E000800D0020FEE700000E4B70B51E460E4C2A
:1018F0000025E41AA410A54204D056F825309847D4
:101900000135F8E700F016F8084B094C1E46E41ABA
:10191000A4100025A54204D056F82530984701357B
:10192000F8E770BDA4190008A4190008A41900085C
:10193000A8190008F8B500BFF8BC08BC9E4670475F
:0C194000F8B500BFF8BC08BC9E4670471C
:10194C0080190008C502000800000000000000001B
:10195C008000000002030405060708090A0B0C0DA1
:10196C000E0F1010010200005372632F6D61696E2F
:10197C002E63000064656661756C745461736B0052
:10198C000000000000000000010203040607080923
:08199C0049444C450000000025
:0419A4005D020008D8
:0419A80035020008FC
:1019AC00100000000100000000A24A04AAAAAAAA82
:040000050800189D3A
:00000001FF
